{
  "contractName": "GuarantifyNFTContract",
  "abi": [
    {
      "inputs": [],
      "stateMutability": "nonpayable",
      "type": "constructor"
    },
    {
      "anonymous": false,
      "inputs": [
        {
          "indexed": true,
          "internalType": "address",
          "name": "owner",
          "type": "address"
        },
        {
          "indexed": true,
          "internalType": "address",
          "name": "approved",
          "type": "address"
        },
        {
          "indexed": true,
          "internalType": "uint256",
          "name": "tokenId",
          "type": "uint256"
        }
      ],
      "name": "Approval",
      "type": "event"
    },
    {
      "anonymous": false,
      "inputs": [
        {
          "indexed": true,
          "internalType": "address",
          "name": "owner",
          "type": "address"
        },
        {
          "indexed": true,
          "internalType": "address",
          "name": "operator",
          "type": "address"
        },
        {
          "indexed": false,
          "internalType": "bool",
          "name": "approved",
          "type": "bool"
        }
      ],
      "name": "ApprovalForAll",
      "type": "event"
    },
    {
      "anonymous": false,
      "inputs": [
        {
          "indexed": true,
          "internalType": "address",
          "name": "from",
          "type": "address"
        },
        {
          "indexed": true,
          "internalType": "address",
          "name": "to",
          "type": "address"
        },
        {
          "indexed": true,
          "internalType": "uint256",
          "name": "tokenId",
          "type": "uint256"
        }
      ],
      "name": "Transfer",
      "type": "event"
    },
    {
      "anonymous": false,
      "inputs": [
        {
          "indexed": false,
          "internalType": "address",
          "name": "consumerAddress",
          "type": "address"
        }
      ],
      "name": "eventWarrantyTokenConsumerAdded",
      "type": "event"
    },
    {
      "anonymous": false,
      "inputs": [
        {
          "indexed": false,
          "internalType": "address",
          "name": "consumerAddress",
          "type": "address"
        }
      ],
      "name": "eventWarrantyTokenConsumerRemoved",
      "type": "event"
    },
    {
      "anonymous": false,
      "inputs": [
        {
          "indexed": false,
          "internalType": "uint256",
          "name": "tokenId",
          "type": "uint256"
        },
        {
          "indexed": false,
          "internalType": "address",
          "name": "owner",
          "type": "address"
        }
      ],
      "name": "eventWarrantyTokenIsBurned",
      "type": "event"
    },
    {
      "anonymous": false,
      "inputs": [
        {
          "indexed": false,
          "internalType": "uint256",
          "name": "tokenId",
          "type": "uint256"
        },
        {
          "indexed": false,
          "internalType": "string",
          "name": "gtin",
          "type": "string"
        },
        {
          "indexed": false,
          "internalType": "address",
          "name": "owner",
          "type": "address"
        }
      ],
      "name": "eventWarrantyTokenIsCreated",
      "type": "event"
    },
    {
      "anonymous": false,
      "inputs": [
        {
          "indexed": false,
          "internalType": "uint256",
          "name": "tokenId",
          "type": "uint256"
        },
        {
          "indexed": false,
          "internalType": "address",
          "name": "owner",
          "type": "address"
        }
      ],
      "name": "eventWarrantyTokenIsEnabled",
      "type": "event"
    },
    {
      "anonymous": false,
      "inputs": [
        {
          "indexed": false,
          "internalType": "uint256",
          "name": "tokenId",
          "type": "uint256"
        },
        {
          "indexed": false,
          "internalType": "address",
          "name": "owner",
          "type": "address"
        }
      ],
      "name": "eventWarrantyTokenIsExpired",
      "type": "event"
    },
    {
      "anonymous": false,
      "inputs": [
        {
          "indexed": false,
          "internalType": "uint256",
          "name": "tokenId",
          "type": "uint256"
        },
        {
          "indexed": false,
          "internalType": "string",
          "name": "gtin",
          "type": "string"
        },
        {
          "indexed": false,
          "internalType": "address",
          "name": "owner",
          "type": "address"
        }
      ],
      "name": "eventWarrantyTokenIsPending",
      "type": "event"
    },
    {
      "anonymous": false,
      "inputs": [
        {
          "indexed": false,
          "internalType": "uint256",
          "name": "tokenId",
          "type": "uint256"
        },
        {
          "indexed": false,
          "internalType": "address",
          "name": "owner",
          "type": "address"
        },
        {
          "indexed": false,
          "internalType": "uint256",
          "name": "resalePrice",
          "type": "uint256"
        },
        {
          "indexed": false,
          "internalType": "address",
          "name": "to",
          "type": "address"
        }
      ],
      "name": "eventWarrantyTokenIsTransfered",
      "type": "event"
    },
    {
      "anonymous": false,
      "inputs": [
        {
          "indexed": false,
          "internalType": "uint256",
          "name": "tokenId",
          "type": "uint256"
        },
        {
          "indexed": false,
          "internalType": "address",
          "name": "owner",
          "type": "address"
        }
      ],
      "name": "eventWarrantyTokenIsVerified",
      "type": "event"
    },
    {
      "anonymous": false,
      "inputs": [
        {
          "indexed": false,
          "internalType": "address",
          "name": "sellerAddress",
          "type": "address"
        }
      ],
      "name": "eventWarrantyTokenSellerAdded",
      "type": "event"
    },
    {
      "anonymous": false,
      "inputs": [
        {
          "indexed": false,
          "internalType": "address",
          "name": "sellerAddress",
          "type": "address"
        }
      ],
      "name": "eventWarrantyTokenSellerRemoved",
      "type": "event"
    },
    {
      "inputs": [
        {
          "internalType": "address",
          "name": "to",
          "type": "address"
        },
        {
          "internalType": "uint256",
          "name": "tokenId",
          "type": "uint256"
        }
      ],
      "name": "approve",
      "outputs": [],
      "stateMutability": "nonpayable",
      "type": "function"
    },
    {
      "inputs": [
        {
          "internalType": "address",
          "name": "owner",
          "type": "address"
        }
      ],
      "name": "balanceOf",
      "outputs": [
        {
          "internalType": "uint256",
          "name": "",
          "type": "uint256"
        }
      ],
      "stateMutability": "view",
      "type": "function",
      "constant": true
    },
    {
      "inputs": [
        {
          "internalType": "uint256",
          "name": "tokenId",
          "type": "uint256"
        }
      ],
      "name": "getApproved",
      "outputs": [
        {
          "internalType": "address",
          "name": "",
          "type": "address"
        }
      ],
      "stateMutability": "view",
      "type": "function",
      "constant": true
    },
    {
      "inputs": [],
      "name": "guarantifyContractAddress",
      "outputs": [
        {
          "internalType": "address",
          "name": "",
          "type": "address"
        }
      ],
      "stateMutability": "view",
      "type": "function",
      "constant": true
    },
    {
      "inputs": [
        {
          "internalType": "address",
          "name": "owner",
          "type": "address"
        },
        {
          "internalType": "address",
          "name": "operator",
          "type": "address"
        }
      ],
      "name": "isApprovedForAll",
      "outputs": [
        {
          "internalType": "bool",
          "name": "",
          "type": "bool"
        }
      ],
      "stateMutability": "view",
      "type": "function",
      "constant": true
    },
    {
      "inputs": [
        {
          "internalType": "address",
          "name": "",
          "type": "address"
        }
      ],
      "name": "mConsumersByAddress",
      "outputs": [
        {
          "internalType": "uint256",
          "name": "id",
          "type": "uint256"
        },
        {
          "internalType": "address",
          "name": "consumerAddress",
          "type": "address"
        }
      ],
      "stateMutability": "view",
      "type": "function",
      "constant": true
    },
    {
      "inputs": [
        {
          "internalType": "address",
          "name": "",
          "type": "address"
        }
      ],
      "name": "mSellersByAddress",
      "outputs": [
        {
          "internalType": "uint256",
          "name": "id",
          "type": "uint256"
        },
        {
          "internalType": "address",
          "name": "sellerAddress",
          "type": "address"
        }
      ],
      "stateMutability": "view",
      "type": "function",
      "constant": true
    },
    {
      "inputs": [
        {
          "internalType": "uint256",
          "name": "",
          "type": "uint256"
        }
      ],
      "name": "mWarrantyOwnerAddressByTokenId",
      "outputs": [
        {
          "internalType": "address",
          "name": "",
          "type": "address"
        }
      ],
      "stateMutability": "view",
      "type": "function",
      "constant": true
    },
    {
      "inputs": [
        {
          "internalType": "uint256",
          "name": "",
          "type": "uint256"
        }
      ],
      "name": "mWarrantyTokenById",
      "outputs": [
        {
          "internalType": "uint256",
          "name": "id",
          "type": "uint256"
        },
        {
          "internalType": "bytes32",
          "name": "verifyHash",
          "type": "bytes32"
        },
        {
          "internalType": "enum GuarantifyNFTContract.WarrantyTokenStatus",
          "name": "status",
          "type": "uint8"
        },
        {
          "internalType": "bytes32",
          "name": "codeGTIN",
          "type": "bytes32"
        },
        {
          "internalType": "uint256",
          "name": "invoiceNumber",
          "type": "uint256"
        },
        {
          "internalType": "string",
          "name": "productType",
          "type": "string"
        },
        {
          "internalType": "uint256",
          "name": "warrantyDurationInDay",
          "type": "uint256"
        },
        {
          "internalType": "uint256",
          "name": "purchaseDate",
          "type": "uint256"
        },
        {
          "internalType": "address",
          "name": "sellerAddress",
          "type": "address"
        },
        {
          "internalType": "address",
          "name": "buyer",
          "type": "address"
        },
        {
          "internalType": "uint256",
          "name": "price",
          "type": "uint256"
        },
        {
          "internalType": "uint256",
          "name": "resalePrice",
          "type": "uint256"
        }
      ],
      "stateMutability": "view",
      "type": "function",
      "constant": true
    },
    {
      "inputs": [
        {
          "internalType": "uint256",
          "name": "",
          "type": "uint256"
        }
      ],
      "name": "mWarrantyURITokenById",
      "outputs": [
        {
          "internalType": "string",
          "name": "",
          "type": "string"
        }
      ],
      "stateMutability": "view",
      "type": "function",
      "constant": true
    },
    {
      "inputs": [],
      "name": "name",
      "outputs": [
        {
          "internalType": "string",
          "name": "",
          "type": "string"
        }
      ],
      "stateMutability": "view",
      "type": "function",
      "constant": true
    },
    {
      "inputs": [
        {
          "internalType": "uint256",
          "name": "tokenId",
          "type": "uint256"
        }
      ],
      "name": "ownerOf",
      "outputs": [
        {
          "internalType": "address",
          "name": "",
          "type": "address"
        }
      ],
      "stateMutability": "view",
      "type": "function",
      "constant": true
    },
    {
      "inputs": [
        {
          "internalType": "address",
          "name": "from",
          "type": "address"
        },
        {
          "internalType": "address",
          "name": "to",
          "type": "address"
        },
        {
          "internalType": "uint256",
          "name": "tokenId",
          "type": "uint256"
        }
      ],
      "name": "safeTransferFrom",
      "outputs": [],
      "stateMutability": "nonpayable",
      "type": "function"
    },
    {
      "inputs": [
        {
          "internalType": "address",
          "name": "from",
          "type": "address"
        },
        {
          "internalType": "address",
          "name": "to",
          "type": "address"
        },
        {
          "internalType": "uint256",
          "name": "tokenId",
          "type": "uint256"
        },
        {
          "internalType": "bytes",
          "name": "data",
          "type": "bytes"
        }
      ],
      "name": "safeTransferFrom",
      "outputs": [],
      "stateMutability": "nonpayable",
      "type": "function"
    },
    {
      "inputs": [
        {
          "internalType": "address",
          "name": "operator",
          "type": "address"
        },
        {
          "internalType": "bool",
          "name": "approved",
          "type": "bool"
        }
      ],
      "name": "setApprovalForAll",
      "outputs": [],
      "stateMutability": "nonpayable",
      "type": "function"
    },
    {
      "inputs": [
        {
          "internalType": "bytes4",
          "name": "interfaceId",
          "type": "bytes4"
        }
      ],
      "name": "supportsInterface",
      "outputs": [
        {
          "internalType": "bool",
          "name": "",
          "type": "bool"
        }
      ],
      "stateMutability": "view",
      "type": "function",
      "constant": true
    },
    {
      "inputs": [],
      "name": "symbol",
      "outputs": [
        {
          "internalType": "string",
          "name": "",
          "type": "string"
        }
      ],
      "stateMutability": "view",
      "type": "function",
      "constant": true
    },
    {
      "inputs": [
        {
          "internalType": "address",
          "name": "from",
          "type": "address"
        },
        {
          "internalType": "address",
          "name": "to",
          "type": "address"
        },
        {
          "internalType": "uint256",
          "name": "tokenId",
          "type": "uint256"
        }
      ],
      "name": "transferFrom",
      "outputs": [],
      "stateMutability": "nonpayable",
      "type": "function"
    },
    {
      "inputs": [
        {
          "internalType": "string",
          "name": "_codeGTIN",
          "type": "string"
        },
        {
          "internalType": "uint256",
          "name": "_invoiceNumber",
          "type": "uint256"
        },
        {
          "internalType": "string",
          "name": "_productType",
          "type": "string"
        },
        {
          "internalType": "uint256",
          "name": "_warrantyDurationInDay",
          "type": "uint256"
        },
        {
          "internalType": "uint256",
          "name": "_price",
          "type": "uint256"
        },
        {
          "internalType": "string",
          "name": "_tokenURI",
          "type": "string"
        }
      ],
      "name": "createWarranty",
      "outputs": [
        {
          "internalType": "uint256",
          "name": "",
          "type": "uint256"
        }
      ],
      "stateMutability": "nonpayable",
      "type": "function"
    },
    {
      "inputs": [
        {
          "internalType": "uint256",
          "name": "tokenId",
          "type": "uint256"
        },
        {
          "internalType": "string",
          "name": "_codeGTIN",
          "type": "string"
        },
        {
          "internalType": "uint256",
          "name": "_invoiceNumber",
          "type": "uint256"
        }
      ],
      "name": "verifyHashTokenByGtinAndInvoice",
      "outputs": [
        {
          "internalType": "bool",
          "name": "",
          "type": "bool"
        }
      ],
      "stateMutability": "nonpayable",
      "type": "function"
    },
    {
      "inputs": [
        {
          "internalType": "uint256",
          "name": "_tokenId",
          "type": "uint256"
        }
      ],
      "name": "tokenURI",
      "outputs": [
        {
          "internalType": "string",
          "name": "",
          "type": "string"
        }
      ],
      "stateMutability": "view",
      "type": "function",
      "constant": true
    },
    {
      "inputs": [
        {
          "internalType": "uint256",
          "name": "_tokenId",
          "type": "uint256"
        },
        {
          "internalType": "string",
          "name": "_codeGTIN",
          "type": "string"
        },
        {
          "internalType": "uint256",
          "name": "_invoiceNumber",
          "type": "uint256"
        }
      ],
      "name": "claimAndEnabledWarranty",
      "outputs": [],
      "stateMutability": "nonpayable",
      "type": "function"
    },
    {
      "inputs": [
        {
          "internalType": "address",
          "name": "_to",
          "type": "address"
        },
        {
          "internalType": "uint256",
          "name": "_tokenId",
          "type": "uint256"
        },
        {
          "internalType": "uint256",
          "name": "_resalePrice",
          "type": "uint256"
        }
      ],
      "name": "resell",
      "outputs": [],
      "stateMutability": "nonpayable",
      "type": "function"
    },
    {
      "inputs": [
        {
          "internalType": "uint256",
          "name": "_tokenId",
          "type": "uint256"
        }
      ],
      "name": "burn",
      "outputs": [],
      "stateMutability": "nonpayable",
      "type": "function"
    },
    {
      "inputs": [
        {
          "internalType": "address",
          "name": "_Seller",
          "type": "address"
        }
      ],
      "name": "addSeller",
      "outputs": [],
      "stateMutability": "nonpayable",
      "type": "function"
    },
    {
      "inputs": [
        {
          "internalType": "address",
          "name": "_Consumer",
          "type": "address"
        }
      ],
      "name": "addConsumer",
      "outputs": [],
      "stateMutability": "nonpayable",
      "type": "function"
    },
    {
      "inputs": [
        {
          "internalType": "address",
          "name": "_Seller",
          "type": "address"
        }
      ],
      "name": "removeSeller",
      "outputs": [],
      "stateMutability": "nonpayable",
      "type": "function"
    },
    {
      "inputs": [
        {
          "internalType": "address",
          "name": "_Consumer",
          "type": "address"
        }
      ],
      "name": "removeConsumer",
      "outputs": [],
      "stateMutability": "nonpayable",
      "type": "function"
    },
    {
      "inputs": [
        {
          "internalType": "string",
          "name": "str",
          "type": "string"
        }
      ],
      "name": "stringToBytes32",
      "outputs": [
        {
          "internalType": "bytes32",
          "name": "result",
          "type": "bytes32"
        }
      ],
      "stateMutability": "pure",
      "type": "function",
      "constant": true
    },
    {
      "inputs": [
        {
          "internalType": "string",
          "name": "_codeGTIN",
          "type": "string"
        },
        {
          "internalType": "uint256",
          "name": "_invoiceNumber",
          "type": "uint256"
        }
      ],
      "name": "getVerifyHash",
      "outputs": [
        {
          "internalType": "bytes32",
          "name": "",
          "type": "bytes32"
        }
      ],
      "stateMutability": "pure",
      "type": "function",
      "constant": true
    },
    {
      "inputs": [
        {
          "internalType": "string",
          "name": "_codeGTIN",
          "type": "string"
        },
        {
          "internalType": "uint256",
          "name": "_invoiceNumber",
          "type": "uint256"
        },
        {
          "internalType": "uint256",
          "name": "_tokenID",
          "type": "uint256"
        }
      ],
      "name": "isVerifyHash",
      "outputs": [
        {
          "internalType": "bool",
          "name": "",
          "type": "bool"
        }
      ],
      "stateMutability": "view",
      "type": "function",
      "constant": true
    },
    {
      "inputs": [
        {
          "internalType": "address",
          "name": "_Seller",
          "type": "address"
        }
      ],
      "name": "isSeller",
      "outputs": [
        {
          "internalType": "bool",
          "name": "",
          "type": "bool"
        }
      ],
      "stateMutability": "view",
      "type": "function",
      "constant": true
    },
    {
      "inputs": [
        {
          "internalType": "address",
          "name": "_Consumer",
          "type": "address"
        }
      ],
      "name": "isConsumer",
      "outputs": [
        {
          "internalType": "bool",
          "name": "",
          "type": "bool"
        }
      ],
      "stateMutability": "view",
      "type": "function",
      "constant": true
    },
    {
      "inputs": [
        {
          "internalType": "address",
          "name": "SellerAddress",
          "type": "address"
        }
      ],
      "name": "getAllNFTForASeller",
      "outputs": [
        {
          "internalType": "uint256[]",
          "name": "",
          "type": "uint256[]"
        }
      ],
      "stateMutability": "view",
      "type": "function",
      "constant": true
    },
    {
      "inputs": [
        {
          "internalType": "address",
          "name": "ConsumerAddress",
          "type": "address"
        }
      ],
      "name": "getAllNFTForAConsumer",
      "outputs": [
        {
          "internalType": "uint256[]",
          "name": "",
          "type": "uint256[]"
        }
      ],
      "stateMutability": "view",
      "type": "function",
      "constant": true
    }
  ],
  "bytecode": "0x60806040523480156200001157600080fd5b506040518060400160405280600d81526020017f47756172616e746966794e4654000000000000000000000000000000000000008152506040518060400160405280600481526020017f474e4654000000000000000000000000000000000000000000000000000000008152508160009080519060200190620000969291906200059d565b508060019080519060200190620000af9291906200059d565b50505030601160006101000a81548173ffffffffffffffffffffffffffffffffffffffff021916908373ffffffffffffffffffffffffffffffffffffffff160217905550620001036200010960201b60201c565b62000921565b6200013c601160009054906101000a900473ffffffffffffffffffffffffffffffffffffffff166200013e60201b60201c565b565b600073ffffffffffffffffffffffffffffffffffffffff168173ffffffffffffffffffffffffffffffffffffffff1603620001b0576040517f08c379a0000000000000000000000000000000000000000000000000000000008152600401620001a79062000700565b60405180910390fd5b600d60008273ffffffffffffffffffffffffffffffffffffffff1673ffffffffffffffffffffffffffffffffffffffff16815260200190815260200160002060009054906101000a900460ff161562000240576040517f08c379a0000000000000000000000000000000000000000000000000000000008152600401620002379062000772565b60405180910390fd5b8073ffffffffffffffffffffffffffffffffffffffff163373ffffffffffffffffffffffffffffffffffffffff161480620002c857508073ffffffffffffffffffffffffffffffffffffffff16601160009054906101000a900473ffffffffffffffffffffffffffffffffffffffff1673ffffffffffffffffffffffffffffffffffffffff16145b6200030a576040517f08c379a000000000000000000000000000000000000000000000000000000000815260040162000301906200080a565b60405180910390fd5b60006200032360086200057960201b62002c681760201c565b90506001600d60008473ffffffffffffffffffffffffffffffffffffffff1673ffffffffffffffffffffffffffffffffffffffff16815260200190815260200160002060006101000a81548160ff021916908315150217905550600060405180608001604052808381526020018473ffffffffffffffffffffffffffffffffffffffff168152602001600067ffffffffffffffff811115620003ca57620003c96200082c565b5b604051908082528060200260200182016040528015620003f95781602001602082028036833780820191505090505b508152602001600067ffffffffffffffff8111156200041d576200041c6200082c565b5b6040519080825280602002602001820160405280156200044c5781602001602082028036833780820191505090505b50815250905080600f60008573ffffffffffffffffffffffffffffffffffffffff1673ffffffffffffffffffffffffffffffffffffffff1681526020019081526020016000206000820151816000015560208201518160010160006101000a81548173ffffffffffffffffffffffffffffffffffffffff021916908373ffffffffffffffffffffffffffffffffffffffff1602179055506040820151816002019080519060200190620005019291906200062e565b506060820151816003019080519060200190620005209291906200062e565b509050506200053b60086200058760201b62002c761760201c565b7ff24bf70cf53b69961ea2bb656060c1dffee224579c44be6536593a78b13599b3836040516200056c9190620008a0565b60405180910390a1505050565b600081600001549050919050565b6001816000016000828254019250508190555050565b828054620005ab90620008ec565b90600052602060002090601f016020900481019282620005cf57600085556200061b565b82601f10620005ea57805160ff19168380011785556200061b565b828001600101855582156200061b579182015b828111156200061a578251825591602001919060010190620005fd565b5b5090506200062a919062000680565b5090565b8280548282559060005260206000209081019282156200066d579160200282015b828111156200066c5782518255916020019190600101906200064f565b5b5090506200067c919062000680565b5090565b5b808211156200069b57600081600090555060010162000681565b5090565b600082825260208201905092915050565b7f496e76616c69642053656c6c6572206164647265737300000000000000000000600082015250565b6000620006e86016836200069f565b9150620006f582620006b0565b602082019050919050565b600060208201905081810360008301526200071b81620006d9565b9050919050565b7f53656c6c657220616c7265616479206164646564000000000000000000000000600082015250565b60006200075a6014836200069f565b9150620007678262000722565b602082019050919050565b600060208201905081810360008301526200078d816200074b565b9050919050565b7f4f6e6c7920746865206f776e6572206f6620746865206163636f756e7420636160008201527f6e20616464206974000000000000000000000000000000000000000000000000602082015250565b6000620007f26028836200069f565b9150620007ff8262000794565b604082019050919050565b600060208201905081810360008301526200082581620007e3565b9050919050565b7f4e487b7100000000000000000000000000000000000000000000000000000000600052604160045260246000fd5b600073ffffffffffffffffffffffffffffffffffffffff82169050919050565b600062000888826200085b565b9050919050565b6200089a816200087b565b82525050565b6000602082019050620008b760008301846200088f565b92915050565b7f4e487b7100000000000000000000000000000000000000000000000000000000600052602260045260246000fd5b600060028204905060018216806200090557607f821691505b6020821081036200091b576200091a620008bd565b5b50919050565b615ff280620009316000396000f3fe608060405234801561001057600080fd5b50600436106102105760003560e01c806373d972c011610125578063c839d38c116100ad578063cfb519281161007c578063cfb51928146106c2578063d93fabfa146106f2578063e985e9c51461070e578063ee95feaf1461073e578063fc85f4021461076e57610210565b8063c839d38c1461062a578063c87b56dd14610646578063cb0f0ccb14610676578063cdc8349f1461069257610210565b80638b8cf32c116100f45780638b8cf32c1461057357806395d89b41146105a4578063a095a058146105c2578063a22cb465146105f2578063b88d4fde1461060e57610210565b806373d972c0146104c757806376d5e069146104f75780637cb9cf5414610527578063834ff7391461054357610210565b8063381fbdce116101a857806342966c681161017757806342966c68146103eb5780636352211e146104075780636eb67b2a14610437578063707b7bcf1461046757806370a082311461049757610210565b8063381fbdce1461033357806338fd99041461036e5780633de3bd541461039e57806342842e0e146103cf57610210565b8063095ea7b3116101e4578063095ea7b3146102c35780630e27e3df146102df578063112940f9146102fb57806323b872dd1461031757610210565b80627488fc1461021557806301ffc9a71461024557806306fdde0314610275578063081812fc14610293575b600080fd5b61022f600480360381019061022a919061410a565b61078c565b60405161023c91906141d0565b60405180910390f35b61025f600480360381019061025a919061424a565b61082c565b60405161026c9190614292565b60405180910390f35b61027d61090e565b60405161028a91906141d0565b60405180910390f35b6102ad60048036038101906102a8919061410a565b6109a0565b6040516102ba91906142ee565b60405180910390f35b6102dd60048036038101906102d89190614335565b6109e6565b005b6102f960048036038101906102f49190614375565b610afd565b005b61031560048036038101906103109190614375565b610d1a565b005b610331600480360381019061032c91906143a2565b61105c565b005b61034d6004803603810190610348919061410a565b6110bc565b6040516103659c9b9a99989796959493929190614494565b60405180910390f35b6103886004803603810190610383919061468a565b6111f1565b604051610395919061476b565b60405180910390f35b6103b860048036038101906103b39190614375565b611607565b6040516103c6929190614786565b60405180910390f35b6103e960048036038101906103e491906143a2565b61164b565b005b6104056004803603810190610400919061410a565b61166b565b005b610421600480360381019061041c919061410a565b61185f565b60405161042e91906142ee565b60405180910390f35b610451600480360381019061044c91906147af565b6118e5565b60405161045e919061480b565b60405180910390f35b610481600480360381019061047c9190614826565b611918565b60405161048e9190614292565b60405180910390f35b6104b160048036038101906104ac9190614375565b6119de565b6040516104be919061476b565b60405180910390f35b6104e160048036038101906104dc9190614375565b611a95565b6040516104ee9190614953565b60405180910390f35b610511600480360381019061050c9190614375565b611b2f565b60405161051e9190614953565b60405180910390f35b610541600480360381019061053c9190614375565b611bc9565b005b61055d60048036038101906105589190614375565b611de6565b60405161056a9190614292565b60405180910390f35b61058d60048036038101906105889190614375565b611e3c565b60405161059b929190614786565b60405180910390f35b6105ac611e80565b6040516105b991906141d0565b60405180910390f35b6105dc60048036038101906105d79190614975565b611f12565b6040516105e99190614292565b60405180910390f35b61060c60048036038101906106079190614a10565b611f70565b005b61062860048036038101906106239190614af1565b611f86565b005b610644600480360381019061063f9190614b74565b611fe8565b005b610660600480360381019061065b919061410a565b612373565b60405161066d91906141d0565b60405180910390f35b610690600480360381019061068b9190614826565b6123cd565b005b6106ac60048036038101906106a7919061410a565b6126f3565b6040516106b991906142ee565b60405180910390f35b6106dc60048036038101906106d79190614bc7565b612726565b6040516106e9919061480b565b60405180910390f35b61070c60048036038101906107079190614375565b61274f565b005b61072860048036038101906107239190614c10565b612b58565b6040516107359190614292565b60405180910390f35b61075860048036038101906107539190614375565b612bec565b6040516107659190614292565b60405180910390f35b610776612c42565b60405161078391906142ee565b60405180910390f35b600b60205280600052604060002060009150905080546107ab90614c7f565b80601f01602080910402602001604051908101604052809291908181526020018280546107d790614c7f565b80156108245780601f106107f957610100808354040283529160200191610824565b820191906000526020600020905b81548152906001019060200180831161080757829003601f168201915b505050505081565b60007f80ac58cd000000000000000000000000000000000000000000000000000000007bffffffffffffffffffffffffffffffffffffffffffffffffffffffff1916827bffffffffffffffffffffffffffffffffffffffffffffffffffffffff191614806108f757507f5b5e139f000000000000000000000000000000000000000000000000000000007bffffffffffffffffffffffffffffffffffffffffffffffffffffffff1916827bffffffffffffffffffffffffffffffffffffffffffffffffffffffff1916145b80610907575061090682612c8c565b5b9050919050565b60606000805461091d90614c7f565b80601f016020809104026020016040519081016040528092919081815260200182805461094990614c7f565b80156109965780601f1061096b57610100808354040283529160200191610996565b820191906000526020600020905b81548152906001019060200180831161097957829003601f168201915b5050505050905090565b60006109ab82612cf6565b6004600083815260200190815260200160002060009054906101000a900473ffffffffffffffffffffffffffffffffffffffff169050919050565b60006109f18261185f565b90508073ffffffffffffffffffffffffffffffffffffffff168373ffffffffffffffffffffffffffffffffffffffff1603610a61576040517f08c379a0000000000000000000000000000000000000000000000000000000008152600401610a5890614d22565b60405180910390fd5b8073ffffffffffffffffffffffffffffffffffffffff16610a80612d41565b73ffffffffffffffffffffffffffffffffffffffff161480610aaf5750610aae81610aa9612d41565b612b58565b5b610aee576040517f08c379a0000000000000000000000000000000000000000000000000000000008152600401610ae590614db4565b60405180910390fd5b610af88383612d49565b505050565b600e60008273ffffffffffffffffffffffffffffffffffffffff1673ffffffffffffffffffffffffffffffffffffffff16815260200190815260200160002060009054906101000a900460ff16610b89576040517f08c379a0000000000000000000000000000000000000000000000000000000008152600401610b8090614e20565b60405180910390fd5b8073ffffffffffffffffffffffffffffffffffffffff163373ffffffffffffffffffffffffffffffffffffffff1614610bf7576040517f08c379a0000000000000000000000000000000000000000000000000000000008152600401610bee90614eb2565b60405180910390fd5b6000600e60008373ffffffffffffffffffffffffffffffffffffffff1673ffffffffffffffffffffffffffffffffffffffff16815260200190815260200160002060006101000a81548160ff021916908315150217905550601060003373ffffffffffffffffffffffffffffffffffffffff1673ffffffffffffffffffffffffffffffffffffffff1681526020019081526020016000206000808201600090556001820160006101000a81549073ffffffffffffffffffffffffffffffffffffffff0219169055600282016000610cce9190613f6f565b600382016000610cde9190613f6f565b50507f5702777ec9755707410c0534bcc3808b13b29b9af66793eda766d931adc44cab81604051610d0f91906142ee565b60405180910390a150565b600e60008273ffffffffffffffffffffffffffffffffffffffff1673ffffffffffffffffffffffffffffffffffffffff16815260200190815260200160002060009054906101000a900460ff1615610da7576040517f08c379a0000000000000000000000000000000000000000000000000000000008152600401610d9e90614f1e565b60405180910390fd5b8073ffffffffffffffffffffffffffffffffffffffff163373ffffffffffffffffffffffffffffffffffffffff1614610e15576040517f08c379a0000000000000000000000000000000000000000000000000000000008152600401610e0c90614fb0565b60405180910390fd5b6000610e216009612c68565b90506001600e60008473ffffffffffffffffffffffffffffffffffffffff1673ffffffffffffffffffffffffffffffffffffffff16815260200190815260200160002060006101000a81548160ff021916908315150217905550600060405180608001604052808381526020018473ffffffffffffffffffffffffffffffffffffffff168152602001600067ffffffffffffffff811115610ec557610ec461455f565b5b604051908082528060200260200182016040528015610ef35781602001602082028036833780820191505090505b508152602001600067ffffffffffffffff811115610f1457610f1361455f565b5b604051908082528060200260200182016040528015610f425781602001602082028036833780820191505090505b50815250905080601060008573ffffffffffffffffffffffffffffffffffffffff1673ffffffffffffffffffffffffffffffffffffffff1681526020019081526020016000206000820151816000015560208201518160010160006101000a81548173ffffffffffffffffffffffffffffffffffffffff021916908373ffffffffffffffffffffffffffffffffffffffff1602179055506040820151816002019080519060200190610ff5929190613f90565b506060820151816003019080519060200190611012929190613f90565b509050506110206009612c76565b7f2d080a21952df9060af56007c4927b1a7609c4f195733b2d78e53b27171dadfa8360405161104f91906142ee565b60405180910390a1505050565b61106d611067612d41565b82612e02565b6110ac576040517f08c379a00000000000000000000000000000000000000000000000000000000081526004016110a390615042565b60405180910390fd5b6110b7838383612e97565b505050565b600a6020528060005260406000206000915090508060000154908060010154908060020160009054906101000a900460ff169080600301549080600401549080600501805461110a90614c7f565b80601f016020809104026020016040519081016040528092919081815260200182805461113690614c7f565b80156111835780601f1061115857610100808354040283529160200191611183565b820191906000526020600020905b81548152906001019060200180831161116657829003601f168201915b5050505050908060060154908060070154908060080160009054906101000a900473ffffffffffffffffffffffffffffffffffffffff16908060090160009054906101000a900473ffffffffffffffffffffffffffffffffffffffff169080600a01549080600b015490508c565b6000600d60003373ffffffffffffffffffffffffffffffffffffffff1673ffffffffffffffffffffffffffffffffffffffff16815260200190815260200160002060009054906101000a900460ff1661127f576040517f08c379a0000000000000000000000000000000000000000000000000000000008152600401611276906150d4565b60405180910390fd5b600061128b6007612c68565b9050600061129989896118e5565b90506000604051806101800160405280848152602001838152602001600060038111156112c9576112c861441d565b5b81526020016112d78c612726565b81526020018a81526020018981526020018881526020014281526020013373ffffffffffffffffffffffffffffffffffffffff168152602001600073ffffffffffffffffffffffffffffffffffffffff1681526020018781526020016000815250905084600b60008581526020019081526020016000209080519060200190611361929190613fdd565b5080600a6000858152602001908152602001600020600082015181600001556020820151816001015560408201518160020160006101000a81548160ff021916908360038111156113b5576113b461441d565b5b0217905550606082015181600301556080820151816004015560a08201518160050190805190602001906113ea929190613fdd565b5060c0820151816006015560e082015181600701556101008201518160080160006101000a81548173ffffffffffffffffffffffffffffffffffffffff021916908373ffffffffffffffffffffffffffffffffffffffff1602179055506101208201518160090160006101000a81548173ffffffffffffffffffffffffffffffffffffffff021916908373ffffffffffffffffffffffffffffffffffffffff16021790555061014082015181600a015561016082015181600b0155905050600f60003373ffffffffffffffffffffffffffffffffffffffff1673ffffffffffffffffffffffffffffffffffffffff16815260200190815260200160002060020183908060018154018082558091505060019003906000526020600020016000909190919091505533600c600085815260200190815260200160002060006101000a81548173ffffffffffffffffffffffffffffffffffffffff021916908373ffffffffffffffffffffffffffffffffffffffff1602179055507f2a120b356c7da532aa23653f2cc8830b2ac181231cc8f0f79a66a5f80e34fd4a838b33604051611596939291906150f4565b60405180910390a16115a83384613190565b6115b283866131ae565b6115bc6007612c76565b7f5c4ebb1e0c547e3eddbfd1d773a0673140718df689bed5791979444d2f311d0b838b336040516115ef939291906150f4565b60405180910390a18293505050509695505050505050565b600f6020528060005260406000206000915090508060000154908060010160009054906101000a900473ffffffffffffffffffffffffffffffffffffffff16905082565b61166683838360405180602001604052806000815250611f86565b505050565b61167481613222565b6116b3576040517f08c379a00000000000000000000000000000000000000000000000000000000081526004016116aa906151a4565b60405180910390fd5b60006116be82613263565b905080421015611703576040517f08c379a00000000000000000000000000000000000000000000000000000000081526004016116fa90615210565b60405180910390fd5b7f5ae0ac31dd7de911f45cfae95227cbcb2a2af499dd8455f80afd1452bc3682ee8233604051611734929190614786565b60405180910390a1611745826132b2565b611790601060003373ffffffffffffffffffffffffffffffffffffffff1673ffffffffffffffffffffffffffffffffffffffff16815260200190815260200160002060020183613305565b6000600c600084815260200190815260200160002060006101000a81548173ffffffffffffffffffffffffffffffffffffffff021916908373ffffffffffffffffffffffffffffffffffffffff1602179055506002600a600084815260200190815260200160002060020160006101000a81548160ff0219169083600381111561181d5761181c61441d565b5b02179055507f15e6d2ae153bbb6bcbffa6b1682e621db0a3508b82b314dfcc904d020e4c99de8233604051611853929190614786565b60405180910390a15050565b60008061186b836133f9565b9050600073ffffffffffffffffffffffffffffffffffffffff168173ffffffffffffffffffffffffffffffffffffffff16036118dc576040517f08c379a00000000000000000000000000000000000000000000000000000000081526004016118d39061527c565b60405180910390fd5b80915050919050565b600082826040516020016118fa92919061529c565b60405160208183030381529060405280519060200120905092915050565b60006119243385612e02565b611963576040517f08c379a000000000000000000000000000000000000000000000000000000000815260040161195a9061533e565b60405180910390fd5b600061196f84846118e5565b905080600a600087815260200190815260200160002060010154036119d1577fbe4c0c5ffd477ca4926a8019ca8c2819dc73ae454974d644c35cea711de1f24985336040516119bf929190614786565b60405180910390a160019150506119d7565b60009150505b9392505050565b60008073ffffffffffffffffffffffffffffffffffffffff168273ffffffffffffffffffffffffffffffffffffffff1603611a4e576040517f08c379a0000000000000000000000000000000000000000000000000000000008152600401611a45906153d0565b60405180910390fd5b600360008373ffffffffffffffffffffffffffffffffffffffff1673ffffffffffffffffffffffffffffffffffffffff168152602001908152602001600020549050919050565b6060601060008373ffffffffffffffffffffffffffffffffffffffff1673ffffffffffffffffffffffffffffffffffffffff168152602001908152602001600020600201805480602002602001604051908101604052809291908181526020018280548015611b2357602002820191906000526020600020905b815481526020019060010190808311611b0f575b50505050509050919050565b6060600f60008373ffffffffffffffffffffffffffffffffffffffff1673ffffffffffffffffffffffffffffffffffffffff168152602001908152602001600020600201805480602002602001604051908101604052809291908181526020018280548015611bbd57602002820191906000526020600020905b815481526020019060010190808311611ba9575b50505050509050919050565b600d60008273ffffffffffffffffffffffffffffffffffffffff1673ffffffffffffffffffffffffffffffffffffffff16815260200190815260200160002060009054906101000a900460ff16611c55576040517f08c379a0000000000000000000000000000000000000000000000000000000008152600401611c4c9061543c565b60405180910390fd5b8073ffffffffffffffffffffffffffffffffffffffff163373ffffffffffffffffffffffffffffffffffffffff1614611cc3576040517f08c379a0000000000000000000000000000000000000000000000000000000008152600401611cba90614eb2565b60405180910390fd5b6000600d60008373ffffffffffffffffffffffffffffffffffffffff1673ffffffffffffffffffffffffffffffffffffffff16815260200190815260200160002060006101000a81548160ff021916908315150217905550600f60003373ffffffffffffffffffffffffffffffffffffffff1673ffffffffffffffffffffffffffffffffffffffff1681526020019081526020016000206000808201600090556001820160006101000a81549073ffffffffffffffffffffffffffffffffffffffff0219169055600282016000611d9a9190613f6f565b600382016000611daa9190613f6f565b50507f512233771e91488b71731c035ea5de368ec825a0f23335fdf8b0fa6a478861d581604051611ddb91906142ee565b60405180910390a150565b6000600e60008373ffffffffffffffffffffffffffffffffffffffff1673ffffffffffffffffffffffffffffffffffffffff16815260200190815260200160002060009054906101000a900460ff169050919050565b60106020528060005260406000206000915090508060000154908060010160009054906101000a900473ffffffffffffffffffffffffffffffffffffffff16905082565b606060018054611e8f90614c7f565b80601f0160208091040260200160405190810160405280929190818152602001828054611ebb90614c7f565b8015611f085780601f10611edd57610100808354040283529160200191611f08565b820191906000526020600020905b815481529060010190602001808311611eeb57829003601f168201915b5050505050905090565b6000808484604051602001611f2892919061529c565b6040516020818303038152906040528051906020012090506000600a6000858152602001908152602001600020600101549050611f658282613436565b925050509392505050565b611f82611f7b612d41565b8383613453565b5050565b611f97611f91612d41565b83612e02565b611fd6576040517f08c379a0000000000000000000000000000000000000000000000000000000008152600401611fcd90615042565b60405180910390fd5b611fe2848484846135bf565b50505050565b611ff182613222565b612030576040517f08c379a0000000000000000000000000000000000000000000000000000000008152600401612027906151a4565b60405180910390fd5b600160038111156120445761204361441d565b5b600a600084815260200190815260200160002060020160009054906101000a900460ff16600381111561207a5761207961441d565b5b146120ba576040517f08c379a00000000000000000000000000000000000000000000000000000000081526004016120b1906154a8565b60405180910390fd5b3373ffffffffffffffffffffffffffffffffffffffff16600c600084815260200190815260200160002060009054906101000a900473ffffffffffffffffffffffffffffffffffffffff1673ffffffffffffffffffffffffffffffffffffffff161461215b576040517f08c379a000000000000000000000000000000000000000000000000000000000815260040161215290615514565b60405180910390fd5b80600a6000848152602001908152602001600020600b018190555033600a600084815260200190815260200160002060080160006101000a81548173ffffffffffffffffffffffffffffffffffffffff021916908373ffffffffffffffffffffffffffffffffffffffff16021790555082600a600084815260200190815260200160002060090160006101000a81548173ffffffffffffffffffffffffffffffffffffffff021916908373ffffffffffffffffffffffffffffffffffffffff16021790555061222b33848461164b565b612276601060003373ffffffffffffffffffffffffffffffffffffffff1673ffffffffffffffffffffffffffffffffffffffff16815260200190815260200160002060020183613305565b601060008473ffffffffffffffffffffffffffffffffffffffff1673ffffffffffffffffffffffffffffffffffffffff16815260200190815260200160002060020182908060018154018082558091505060019003906000526020600020016000909190919091505582600c600084815260200190815260200160002060006101000a81548173ffffffffffffffffffffffffffffffffffffffff021916908373ffffffffffffffffffffffffffffffffffffffff1602179055507f426a60b1f4b63033d57ef205b28c78832ace5f61baaac82cae1a6b912ab16ebe823383866040516123669493929190615534565b60405180910390a1505050565b606061237e82613222565b6123bd576040517f08c379a00000000000000000000000000000000000000000000000000000000081526004016123b4906155eb565b60405180910390fd5b6123c68261361b565b9050919050565b6123d683613222565b612415576040517f08c379a000000000000000000000000000000000000000000000000000000000815260040161240c9061567d565b60405180910390fd5b600060038111156124295761242861441d565b5b600a600085815260200190815260200160002060020160009054906101000a900460ff16600381111561245f5761245e61441d565b5b1461249f576040517f08c379a00000000000000000000000000000000000000000000000000000000081526004016124969061570f565b60405180910390fd5b6124aa828285611f12565b6124e9576040517f08c379a00000000000000000000000000000000000000000000000000000000081526004016124e0906157a1565b60405180910390fd5b60006124f48461185f565b90508073ffffffffffffffffffffffffffffffffffffffff163373ffffffffffffffffffffffffffffffffffffffff1603612564576040517f08c379a000000000000000000000000000000000000000000000000000000000815260040161255b9061580d565b60405180910390fd5b61256f813386612e97565b6001600a600086815260200190815260200160002060020160006101000a81548160ff021916908360038111156125a9576125a861441d565b5b02179055506125f9600f60008373ffffffffffffffffffffffffffffffffffffffff1673ffffffffffffffffffffffffffffffffffffffff16815260200190815260200160002060020185613305565b601060003373ffffffffffffffffffffffffffffffffffffffff1673ffffffffffffffffffffffffffffffffffffffff16815260200190815260200160002060020184908060018154018082558091505060019003906000526020600020016000909190919091505533600c600086815260200190815260200160002060006101000a81548173ffffffffffffffffffffffffffffffffffffffff021916908373ffffffffffffffffffffffffffffffffffffffff1602179055507f175907d10cfb350e31dd3decfb333e8d0d5139ccdc9ca947985117f6c47326ba84336040516126e5929190614786565b60405180910390a150505050565b600c6020528060005260406000206000915054906101000a900473ffffffffffffffffffffffffffffffffffffffff1681565b6000808290506000815103612741576000801b91505061274a565b60208301519150505b919050565b600073ffffffffffffffffffffffffffffffffffffffff168173ffffffffffffffffffffffffffffffffffffffff16036127be576040517f08c379a00000000000000000000000000000000000000000000000000000000081526004016127b590615879565b60405180910390fd5b600d60008273ffffffffffffffffffffffffffffffffffffffff1673ffffffffffffffffffffffffffffffffffffffff16815260200190815260200160002060009054906101000a900460ff161561284b576040517f08c379a0000000000000000000000000000000000000000000000000000000008152600401612842906158e5565b60405180910390fd5b8073ffffffffffffffffffffffffffffffffffffffff163373ffffffffffffffffffffffffffffffffffffffff1614806128d257508073ffffffffffffffffffffffffffffffffffffffff16601160009054906101000a900473ffffffffffffffffffffffffffffffffffffffff1673ffffffffffffffffffffffffffffffffffffffff16145b612911576040517f08c379a000000000000000000000000000000000000000000000000000000000815260040161290890614fb0565b60405180910390fd5b600061291d6008612c68565b90506001600d60008473ffffffffffffffffffffffffffffffffffffffff1673ffffffffffffffffffffffffffffffffffffffff16815260200190815260200160002060006101000a81548160ff021916908315150217905550600060405180608001604052808381526020018473ffffffffffffffffffffffffffffffffffffffff168152602001600067ffffffffffffffff8111156129c1576129c061455f565b5b6040519080825280602002602001820160405280156129ef5781602001602082028036833780820191505090505b508152602001600067ffffffffffffffff811115612a1057612a0f61455f565b5b604051908082528060200260200182016040528015612a3e5781602001602082028036833780820191505090505b50815250905080600f60008573ffffffffffffffffffffffffffffffffffffffff1673ffffffffffffffffffffffffffffffffffffffff1681526020019081526020016000206000820151816000015560208201518160010160006101000a81548173ffffffffffffffffffffffffffffffffffffffff021916908373ffffffffffffffffffffffffffffffffffffffff1602179055506040820151816002019080519060200190612af1929190613f90565b506060820151816003019080519060200190612b0e929190613f90565b50905050612b1c6008612c76565b7ff24bf70cf53b69961ea2bb656060c1dffee224579c44be6536593a78b13599b383604051612b4b91906142ee565b60405180910390a1505050565b6000600560008473ffffffffffffffffffffffffffffffffffffffff1673ffffffffffffffffffffffffffffffffffffffff16815260200190815260200160002060008373ffffffffffffffffffffffffffffffffffffffff1673ffffffffffffffffffffffffffffffffffffffff16815260200190815260200160002060009054906101000a900460ff16905092915050565b6000600d60008373ffffffffffffffffffffffffffffffffffffffff1673ffffffffffffffffffffffffffffffffffffffff16815260200190815260200160002060009054906101000a900460ff169050919050565b601160009054906101000a900473ffffffffffffffffffffffffffffffffffffffff1681565b600081600001549050919050565b6001816000016000828254019250508190555050565b60007f01ffc9a7000000000000000000000000000000000000000000000000000000007bffffffffffffffffffffffffffffffffffffffffffffffffffffffff1916827bffffffffffffffffffffffffffffffffffffffffffffffffffffffff1916149050919050565b612cff81613222565b612d3e576040517f08c379a0000000000000000000000000000000000000000000000000000000008152600401612d359061527c565b60405180910390fd5b50565b600033905090565b816004600083815260200190815260200160002060006101000a81548173ffffffffffffffffffffffffffffffffffffffff021916908373ffffffffffffffffffffffffffffffffffffffff160217905550808273ffffffffffffffffffffffffffffffffffffffff16612dbc8361185f565b73ffffffffffffffffffffffffffffffffffffffff167f8c5be1e5ebec7d5bd14f71427d1e84f3dd0314c0f7b2291e5b200ac8c7c3b92560405160405180910390a45050565b600080612e0e8361185f565b90508073ffffffffffffffffffffffffffffffffffffffff168473ffffffffffffffffffffffffffffffffffffffff161480612e505750612e4f8185612b58565b5b80612e8e57508373ffffffffffffffffffffffffffffffffffffffff16612e76846109a0565b73ffffffffffffffffffffffffffffffffffffffff16145b91505092915050565b8273ffffffffffffffffffffffffffffffffffffffff16612eb78261185f565b73ffffffffffffffffffffffffffffffffffffffff1614612f0d576040517f08c379a0000000000000000000000000000000000000000000000000000000008152600401612f0490615977565b60405180910390fd5b600073ffffffffffffffffffffffffffffffffffffffff168273ffffffffffffffffffffffffffffffffffffffff1603612f7c576040517f08c379a0000000000000000000000000000000000000000000000000000000008152600401612f7390615a09565b60405180910390fd5b612f89838383600161372d565b8273ffffffffffffffffffffffffffffffffffffffff16612fa98261185f565b73ffffffffffffffffffffffffffffffffffffffff1614612fff576040517f08c379a0000000000000000000000000000000000000000000000000000000008152600401612ff690615977565b60405180910390fd5b6004600082815260200190815260200160002060006101000a81549073ffffffffffffffffffffffffffffffffffffffff02191690556001600360008573ffffffffffffffffffffffffffffffffffffffff1673ffffffffffffffffffffffffffffffffffffffff168152602001908152602001600020600082825403925050819055506001600360008473ffffffffffffffffffffffffffffffffffffffff1673ffffffffffffffffffffffffffffffffffffffff16815260200190815260200160002060008282540192505081905550816002600083815260200190815260200160002060006101000a81548173ffffffffffffffffffffffffffffffffffffffff021916908373ffffffffffffffffffffffffffffffffffffffff160217905550808273ffffffffffffffffffffffffffffffffffffffff168473ffffffffffffffffffffffffffffffffffffffff167fddf252ad1be2c89b69c2b068fc378daa952ba7f163c4a11628f55a4df523b3ef60405160405180910390a461318b8383836001613733565b505050565b6131aa828260405180602001604052806000815250613739565b5050565b6131b782613222565b6131f6576040517f08c379a00000000000000000000000000000000000000000000000000000000081526004016131ed90615a9b565b60405180910390fd5b8060066000848152602001908152602001600020908051906020019061321d929190613fdd565b505050565b60008073ffffffffffffffffffffffffffffffffffffffff16613244836133f9565b73ffffffffffffffffffffffffffffffffffffffff1614159050919050565b600062015180600a60008481526020019081526020016000206006015461328a9190615aea565b600a6000848152602001908152602001600020600701546132ab9190615b44565b9050919050565b6132bb81613794565b60006006600083815260200190815260200160002080546132db90614c7f565b905014613302576006600082815260200190815260200160002060006133019190614063565b5b50565b60005b82805490508110156133f4578183828154811061332857613327615b9a565b5b9060005260206000200154036133e15760008190505b6001848054905061334f9190615bc9565b8110156133b457836001826133649190615b44565b8154811061337557613374615b9a565b5b906000526020600020015484828154811061339357613392615b9a565b5b906000526020600020018190555080806133ac90615bfd565b91505061333e565b50828054806133c6576133c5615c45565b5b600190038181906000526020600020016000905590556133f4565b80806133ec90615bfd565b915050613308565b505050565b60006002600083815260200190815260200160002060009054906101000a900473ffffffffffffffffffffffffffffffffffffffff169050919050565b6000818303613448576001905061344d565b600090505b92915050565b8173ffffffffffffffffffffffffffffffffffffffff168373ffffffffffffffffffffffffffffffffffffffff16036134c1576040517f08c379a00000000000000000000000000000000000000000000000000000000081526004016134b890615cc0565b60405180910390fd5b80600560008573ffffffffffffffffffffffffffffffffffffffff1673ffffffffffffffffffffffffffffffffffffffff16815260200190815260200160002060008473ffffffffffffffffffffffffffffffffffffffff1673ffffffffffffffffffffffffffffffffffffffff16815260200190815260200160002060006101000a81548160ff0219169083151502179055508173ffffffffffffffffffffffffffffffffffffffff168373ffffffffffffffffffffffffffffffffffffffff167f17307eab39ab6107e8899845ad3d59bd9653f200f220920489ca2b5937696c31836040516135b29190614292565b60405180910390a3505050565b6135ca848484612e97565b6135d6848484846138e2565b613615576040517f08c379a000000000000000000000000000000000000000000000000000000000815260040161360c90615d52565b60405180910390fd5b50505050565b606061362682612cf6565b600060066000848152602001908152602001600020805461364690614c7f565b80601f016020809104026020016040519081016040528092919081815260200182805461367290614c7f565b80156136bf5780601f10613694576101008083540402835291602001916136bf565b820191906000526020600020905b8154815290600101906020018083116136a257829003601f168201915b5050505050905060006136d0613a69565b905060008151036136e5578192505050613728565b60008251111561371a578082604051602001613702929190615dae565b60405160208183030381529060405292505050613728565b61372384613aa6565b925050505b919050565b50505050565b50505050565b6137438383613b0e565b61375060008484846138e2565b61378f576040517f08c379a000000000000000000000000000000000000000000000000000000000815260040161378690615d52565b60405180910390fd5b505050565b600061379f8261185f565b90506137af81600084600161372d565b6137b88261185f565b90506004600083815260200190815260200160002060006101000a81549073ffffffffffffffffffffffffffffffffffffffff02191690556001600360008373ffffffffffffffffffffffffffffffffffffffff1673ffffffffffffffffffffffffffffffffffffffff168152602001908152602001600020600082825403925050819055506002600083815260200190815260200160002060006101000a81549073ffffffffffffffffffffffffffffffffffffffff021916905581600073ffffffffffffffffffffffffffffffffffffffff168273ffffffffffffffffffffffffffffffffffffffff167fddf252ad1be2c89b69c2b068fc378daa952ba7f163c4a11628f55a4df523b3ef60405160405180910390a46138de816000846001613733565b5050565b60006139038473ffffffffffffffffffffffffffffffffffffffff16613d2b565b15613a5c578373ffffffffffffffffffffffffffffffffffffffff1663150b7a0261392c612d41565b8786866040518563ffffffff1660e01b815260040161394e9493929190615e27565b6020604051808303816000875af192505050801561398a57506040513d601f19601f820116820180604052508101906139879190615e88565b60015b613a0c573d80600081146139ba576040519150601f19603f3d011682016040523d82523d6000602084013e6139bf565b606091505b506000815103613a04576040517f08c379a00000000000000000000000000000000000000000000000000000000081526004016139fb90615d52565b60405180910390fd5b805181602001fd5b63150b7a0260e01b7bffffffffffffffffffffffffffffffffffffffffffffffffffffffff1916817bffffffffffffffffffffffffffffffffffffffffffffffffffffffff191614915050613a61565b600190505b949350505050565b60606040518060400160405280601581526020017f68747470733a2f2f697066732e696f2f697066732f0000000000000000000000815250905090565b6060613ab182612cf6565b6000613abb613a69565b90506000815111613adb5760405180602001604052806000815250613b06565b80613ae584613d4e565b604051602001613af6929190615dae565b6040516020818303038152906040525b915050919050565b600073ffffffffffffffffffffffffffffffffffffffff168273ffffffffffffffffffffffffffffffffffffffff1603613b7d576040517f08c379a0000000000000000000000000000000000000000000000000000000008152600401613b7490615f01565b60405180910390fd5b613b8681613222565b15613bc6576040517f08c379a0000000000000000000000000000000000000000000000000000000008152600401613bbd90615f6d565b60405180910390fd5b613bd460008383600161372d565b613bdd81613222565b15613c1d576040517f08c379a0000000000000000000000000000000000000000000000000000000008152600401613c1490615f6d565b60405180910390fd5b6001600360008473ffffffffffffffffffffffffffffffffffffffff1673ffffffffffffffffffffffffffffffffffffffff16815260200190815260200160002060008282540192505081905550816002600083815260200190815260200160002060006101000a81548173ffffffffffffffffffffffffffffffffffffffff021916908373ffffffffffffffffffffffffffffffffffffffff160217905550808273ffffffffffffffffffffffffffffffffffffffff16600073ffffffffffffffffffffffffffffffffffffffff167fddf252ad1be2c89b69c2b068fc378daa952ba7f163c4a11628f55a4df523b3ef60405160405180910390a4613d27600083836001613733565b5050565b6000808273ffffffffffffffffffffffffffffffffffffffff163b119050919050565b606060006001613d5d84613e1c565b01905060008167ffffffffffffffff811115613d7c57613d7b61455f565b5b6040519080825280601f01601f191660200182016040528015613dae5781602001600182028036833780820191505090505b509050600082602001820190505b600115613e11578080600190039150507f3031323334353637383961626364656600000000000000000000000000000000600a86061a8153600a8581613e0557613e04615f8d565b5b04945060008503613dbc575b819350505050919050565b600080600090507a184f03e93ff9f4daa797ed6e38ed64bf6a1f0100000000000000008310613e7a577a184f03e93ff9f4daa797ed6e38ed64bf6a1f0100000000000000008381613e7057613e6f615f8d565b5b0492506040810190505b6d04ee2d6d415b85acef81000000008310613eb7576d04ee2d6d415b85acef81000000008381613ead57613eac615f8d565b5b0492506020810190505b662386f26fc100008310613ee657662386f26fc100008381613edc57613edb615f8d565b5b0492506010810190505b6305f5e1008310613f0f576305f5e1008381613f0557613f04615f8d565b5b0492506008810190505b6127108310613f34576127108381613f2a57613f29615f8d565b5b0492506004810190505b60648310613f575760648381613f4d57613f4c615f8d565b5b0492506002810190505b600a8310613f66576001810190505b80915050919050565b5080546000825590600052602060002090810190613f8d91906140a3565b50565b828054828255906000526020600020908101928215613fcc579160200282015b82811115613fcb578251825591602001919060010190613fb0565b5b509050613fd991906140a3565b5090565b828054613fe990614c7f565b90600052602060002090601f01602090048101928261400b5760008555614052565b82601f1061402457805160ff1916838001178555614052565b82800160010185558215614052579182015b82811115614051578251825591602001919060010190614036565b5b50905061405f91906140a3565b5090565b50805461406f90614c7f565b6000825580601f1061408157506140a0565b601f01602090049060005260206000209081019061409f91906140a3565b5b50565b5b808211156140bc5760008160009055506001016140a4565b5090565b6000604051905090565b600080fd5b600080fd5b6000819050919050565b6140e7816140d4565b81146140f257600080fd5b50565b600081359050614104816140de565b92915050565b6000602082840312156141205761411f6140ca565b5b600061412e848285016140f5565b91505092915050565b600081519050919050565b600082825260208201905092915050565b60005b83811015614171578082015181840152602081019050614156565b83811115614180576000848401525b50505050565b6000601f19601f8301169050919050565b60006141a282614137565b6141ac8185614142565b93506141bc818560208601614153565b6141c581614186565b840191505092915050565b600060208201905081810360008301526141ea8184614197565b905092915050565b60007fffffffff0000000000000000000000000000000000000000000000000000000082169050919050565b614227816141f2565b811461423257600080fd5b50565b6000813590506142448161421e565b92915050565b6000602082840312156142605761425f6140ca565b5b600061426e84828501614235565b91505092915050565b60008115159050919050565b61428c81614277565b82525050565b60006020820190506142a76000830184614283565b92915050565b600073ffffffffffffffffffffffffffffffffffffffff82169050919050565b60006142d8826142ad565b9050919050565b6142e8816142cd565b82525050565b600060208201905061430360008301846142df565b92915050565b614312816142cd565b811461431d57600080fd5b50565b60008135905061432f81614309565b92915050565b6000806040838503121561434c5761434b6140ca565b5b600061435a85828601614320565b925050602061436b858286016140f5565b9150509250929050565b60006020828403121561438b5761438a6140ca565b5b600061439984828501614320565b91505092915050565b6000806000606084860312156143bb576143ba6140ca565b5b60006143c986828701614320565b93505060206143da86828701614320565b92505060406143eb868287016140f5565b9150509250925092565b6143fe816140d4565b82525050565b6000819050919050565b61441781614404565b82525050565b7f4e487b7100000000000000000000000000000000000000000000000000000000600052602160045260246000fd5b6004811061445d5761445c61441d565b5b50565b600081905061446e8261444c565b919050565b600061447e82614460565b9050919050565b61448e81614473565b82525050565b6000610180820190506144aa600083018f6143f5565b6144b7602083018e61440e565b6144c4604083018d614485565b6144d1606083018c61440e565b6144de608083018b6143f5565b81810360a08301526144f0818a614197565b90506144ff60c08301896143f5565b61450c60e08301886143f5565b61451a6101008301876142df565b6145286101208301866142df565b6145366101408301856143f5565b6145446101608301846143f5565b9d9c50505050505050505050505050565b600080fd5b600080fd5b7f4e487b7100000000000000000000000000000000000000000000000000000000600052604160045260246000fd5b61459782614186565b810181811067ffffffffffffffff821117156145b6576145b561455f565b5b80604052505050565b60006145c96140c0565b90506145d5828261458e565b919050565b600067ffffffffffffffff8211156145f5576145f461455f565b5b6145fe82614186565b9050602081019050919050565b82818337600083830152505050565b600061462d614628846145da565b6145bf565b9050828152602081018484840111156146495761464861455a565b5b61465484828561460b565b509392505050565b600082601f83011261467157614670614555565b5b813561468184826020860161461a565b91505092915050565b60008060008060008060c087890312156146a7576146a66140ca565b5b600087013567ffffffffffffffff8111156146c5576146c46140cf565b5b6146d189828a0161465c565b96505060206146e289828a016140f5565b955050604087013567ffffffffffffffff811115614703576147026140cf565b5b61470f89828a0161465c565b945050606061472089828a016140f5565b935050608061473189828a016140f5565b92505060a087013567ffffffffffffffff811115614752576147516140cf565b5b61475e89828a0161465c565b9150509295509295509295565b600060208201905061478060008301846143f5565b92915050565b600060408201905061479b60008301856143f5565b6147a860208301846142df565b9392505050565b600080604083850312156147c6576147c56140ca565b5b600083013567ffffffffffffffff8111156147e4576147e36140cf565b5b6147f08582860161465c565b9250506020614801858286016140f5565b9150509250929050565b6000602082019050614820600083018461440e565b92915050565b60008060006060848603121561483f5761483e6140ca565b5b600061484d868287016140f5565b935050602084013567ffffffffffffffff81111561486e5761486d6140cf565b5b61487a8682870161465c565b925050604061488b868287016140f5565b9150509250925092565b600081519050919050565b600082825260208201905092915050565b6000819050602082019050919050565b6148ca816140d4565b82525050565b60006148dc83836148c1565b60208301905092915050565b6000602082019050919050565b600061490082614895565b61490a81856148a0565b9350614915836148b1565b8060005b8381101561494657815161492d88826148d0565b9750614938836148e8565b925050600181019050614919565b5085935050505092915050565b6000602082019050818103600083015261496d81846148f5565b905092915050565b60008060006060848603121561498e5761498d6140ca565b5b600084013567ffffffffffffffff8111156149ac576149ab6140cf565b5b6149b88682870161465c565b93505060206149c9868287016140f5565b92505060406149da868287016140f5565b9150509250925092565b6149ed81614277565b81146149f857600080fd5b50565b600081359050614a0a816149e4565b92915050565b60008060408385031215614a2757614a266140ca565b5b6000614a3585828601614320565b9250506020614a46858286016149fb565b9150509250929050565b600067ffffffffffffffff821115614a6b57614a6a61455f565b5b614a7482614186565b9050602081019050919050565b6000614a94614a8f84614a50565b6145bf565b905082815260208101848484011115614ab057614aaf61455a565b5b614abb84828561460b565b509392505050565b600082601f830112614ad857614ad7614555565b5b8135614ae8848260208601614a81565b91505092915050565b60008060008060808587031215614b0b57614b0a6140ca565b5b6000614b1987828801614320565b9450506020614b2a87828801614320565b9350506040614b3b878288016140f5565b925050606085013567ffffffffffffffff811115614b5c57614b5b6140cf565b5b614b6887828801614ac3565b91505092959194509250565b600080600060608486031215614b8d57614b8c6140ca565b5b6000614b9b86828701614320565b9350506020614bac868287016140f5565b9250506040614bbd868287016140f5565b9150509250925092565b600060208284031215614bdd57614bdc6140ca565b5b600082013567ffffffffffffffff811115614bfb57614bfa6140cf565b5b614c078482850161465c565b91505092915050565b60008060408385031215614c2757614c266140ca565b5b6000614c3585828601614320565b9250506020614c4685828601614320565b9150509250929050565b7f4e487b7100000000000000000000000000000000000000000000000000000000600052602260045260246000fd5b60006002820490506001821680614c9757607f821691505b602082108103614caa57614ca9614c50565b5b50919050565b7f4552433732313a20617070726f76616c20746f2063757272656e74206f776e6560008201527f7200000000000000000000000000000000000000000000000000000000000000602082015250565b6000614d0c602183614142565b9150614d1782614cb0565b604082019050919050565b60006020820190508181036000830152614d3b81614cff565b9050919050565b7f4552433732313a20617070726f76652063616c6c6572206973206e6f7420746f60008201527f6b656e206f776e6572206f7220617070726f76656420666f7220616c6c000000602082015250565b6000614d9e603d83614142565b9150614da982614d42565b604082019050919050565b60006020820190508181036000830152614dcd81614d91565b9050919050565b7f436f6e73756d6572206e6f7420666f756e640000000000000000000000000000600082015250565b6000614e0a601283614142565b9150614e1582614dd4565b602082019050919050565b60006020820190508181036000830152614e3981614dfd565b9050919050565b7f4f6e6c7920746865206f776e6572206f6620746865206163636f756e7420636160008201527f6e2064656c657465206974000000000000000000000000000000000000000000602082015250565b6000614e9c602b83614142565b9150614ea782614e40565b604082019050919050565b60006020820190508181036000830152614ecb81614e8f565b9050919050565b7f436f6e73756d657220616c726561647920616464656400000000000000000000600082015250565b6000614f08601683614142565b9150614f1382614ed2565b602082019050919050565b60006020820190508181036000830152614f3781614efb565b9050919050565b7f4f6e6c7920746865206f776e6572206f6620746865206163636f756e7420636160008201527f6e20616464206974000000000000000000000000000000000000000000000000602082015250565b6000614f9a602883614142565b9150614fa582614f3e565b604082019050919050565b60006020820190508181036000830152614fc981614f8d565b9050919050565b7f4552433732313a2063616c6c6572206973206e6f7420746f6b656e206f776e6560008201527f72206f7220617070726f76656400000000000000000000000000000000000000602082015250565b600061502c602d83614142565b915061503782614fd0565b604082019050919050565b6000602082019050818103600083015261505b8161501f565b9050919050565b7f4f6e6c792053656c6c6572732063616e206372656174652077617272616e746960008201527f6573000000000000000000000000000000000000000000000000000000000000602082015250565b60006150be602283614142565b91506150c982615062565b604082019050919050565b600060208201905081810360008301526150ed816150b1565b9050919050565b600060608201905061510960008301866143f5565b818103602083015261511b8185614197565b905061512a60408301846142df565b949350505050565b7f4552433732314d657461646174613a206e6f6e6578697374656e7420746f6b6560008201527f6e00000000000000000000000000000000000000000000000000000000000000602082015250565b600061518e602183614142565b915061519982615132565b604082019050919050565b600060208201905081810360008301526151bd81615181565b9050919050565b7f54686520676172616e746965206973206e6f7420657870697265640000000000600082015250565b60006151fa601b83614142565b9150615205826151c4565b602082019050919050565b60006020820190508181036000830152615229816151ed565b9050919050565b7f4552433732313a20696e76616c696420746f6b656e2049440000000000000000600082015250565b6000615266601883614142565b915061527182615230565b602082019050919050565b6000602082019050818103600083015261529581615259565b9050919050565b600060408201905081810360008301526152b68185614197565b90506152c560208301846143f5565b9392505050565b7f4552433732313a207472616e736665722063616c6c6572206973206e6f74206f60008201527f776e6572206e6f7220617070726f766564000000000000000000000000000000602082015250565b6000615328603183614142565b9150615333826152cc565b604082019050919050565b600060208201905081810360008301526153578161531b565b9050919050565b7f4552433732313a2061646472657373207a65726f206973206e6f74206120766160008201527f6c6964206f776e65720000000000000000000000000000000000000000000000602082015250565b60006153ba602983614142565b91506153c58261535e565b604082019050919050565b600060208201905081810360008301526153e9816153ad565b9050919050565b7f53656c6c6572206e6f7420666f756e6400000000000000000000000000000000600082015250565b6000615426601083614142565b9150615431826153f0565b602082019050919050565b6000602082019050818103600083015261545581615419565b9050919050565b7f546869732077617272616e7479206973206e6f7420656e61626c656400000000600082015250565b6000615492601c83614142565b915061549d8261545c565b602082019050919050565b600060208201905081810360008301526154c181615485565b9050919050565b7f4e6f74204f776e6572206f662074686973204e46542077617272616e74790000600082015250565b60006154fe601e83614142565b9150615509826154c8565b602082019050919050565b6000602082019050818103600083015261552d816154f1565b9050919050565b600060808201905061554960008301876143f5565b61555660208301866142df565b61556360408301856143f5565b61557060608301846142df565b95945050505050565b7f4552433732314d657461646174613a2055524920717565727920666f72206e6f60008201527f6e6578697374656e7420746f6b656e0000000000000000000000000000000000602082015250565b60006155d5602f83614142565b91506155e082615579565b604082019050919050565b60006020820190508181036000830152615604816155c8565b9050919050565b7f57617272616e7479436f6e74726163743a20746f6b656e20646f6573206e6f7460008201527f2065786973740000000000000000000000000000000000000000000000000000602082015250565b6000615667602683614142565b91506156728261560b565b604082019050919050565b600060208201905081810360008301526156968161565a565b9050919050565b7f546869732077617272616e7479206973206e6f742070656e64696e672061637460008201527f6976650000000000000000000000000000000000000000000000000000000000602082015250565b60006156f9602383614142565b91506157048261569d565b604082019050919050565b60006020820190508181036000830152615728816156ec565b9050919050565b7f57617272616e7479436f6e74726163743a2068617368206e6f7420766572696660008201527f7900000000000000000000000000000000000000000000000000000000000000602082015250565b600061578b602183614142565b91506157968261572f565b604082019050919050565b600060208201905081810360008301526157ba8161577e565b9050919050565b7f596f7520616c7265616479206f776e20746869732077617272616e7479000000600082015250565b60006157f7601d83614142565b9150615802826157c1565b602082019050919050565b60006020820190508181036000830152615826816157ea565b9050919050565b7f496e76616c69642053656c6c6572206164647265737300000000000000000000600082015250565b6000615863601683614142565b915061586e8261582d565b602082019050919050565b6000602082019050818103600083015261589281615856565b9050919050565b7f53656c6c657220616c7265616479206164646564000000000000000000000000600082015250565b60006158cf601483614142565b91506158da82615899565b602082019050919050565b600060208201905081810360008301526158fe816158c2565b9050919050565b7f4552433732313a207472616e736665722066726f6d20696e636f72726563742060008201527f6f776e6572000000000000000000000000000000000000000000000000000000602082015250565b6000615961602583614142565b915061596c82615905565b604082019050919050565b6000602082019050818103600083015261599081615954565b9050919050565b7f4552433732313a207472616e7366657220746f20746865207a65726f2061646460008201527f7265737300000000000000000000000000000000000000000000000000000000602082015250565b60006159f3602483614142565b91506159fe82615997565b604082019050919050565b60006020820190508181036000830152615a22816159e6565b9050919050565b7f45524337323155524953746f726167653a2055524920736574206f66206e6f6e60008201527f6578697374656e7420746f6b656e000000000000000000000000000000000000602082015250565b6000615a85602e83614142565b9150615a9082615a29565b604082019050919050565b60006020820190508181036000830152615ab481615a78565b9050919050565b7f4e487b7100000000000000000000000000000000000000000000000000000000600052601160045260246000fd5b6000615af5826140d4565b9150615b00836140d4565b9250817fffffffffffffffffffffffffffffffffffffffffffffffffffffffffffffffff0483118215151615615b3957615b38615abb565b5b828202905092915050565b6000615b4f826140d4565b9150615b5a836140d4565b9250827fffffffffffffffffffffffffffffffffffffffffffffffffffffffffffffffff03821115615b8f57615b8e615abb565b5b828201905092915050565b7f4e487b7100000000000000000000000000000000000000000000000000000000600052603260045260246000fd5b6000615bd4826140d4565b9150615bdf836140d4565b925082821015615bf257615bf1615abb565b5b828203905092915050565b6000615c08826140d4565b91507fffffffffffffffffffffffffffffffffffffffffffffffffffffffffffffffff8203615c3a57615c39615abb565b5b600182019050919050565b7f4e487b7100000000000000000000000000000000000000000000000000000000600052603160045260246000fd5b7f4552433732313a20617070726f766520746f2063616c6c657200000000000000600082015250565b6000615caa601983614142565b9150615cb582615c74565b602082019050919050565b60006020820190508181036000830152615cd981615c9d565b9050919050565b7f4552433732313a207472616e7366657220746f206e6f6e20455243373231526560008201527f63656976657220696d706c656d656e7465720000000000000000000000000000602082015250565b6000615d3c603283614142565b9150615d4782615ce0565b604082019050919050565b60006020820190508181036000830152615d6b81615d2f565b9050919050565b600081905092915050565b6000615d8882614137565b615d928185615d72565b9350615da2818560208601614153565b80840191505092915050565b6000615dba8285615d7d565b9150615dc68284615d7d565b91508190509392505050565b600081519050919050565b600082825260208201905092915050565b6000615df982615dd2565b615e038185615ddd565b9350615e13818560208601614153565b615e1c81614186565b840191505092915050565b6000608082019050615e3c60008301876142df565b615e4960208301866142df565b615e5660408301856143f5565b8181036060830152615e688184615dee565b905095945050505050565b600081519050615e828161421e565b92915050565b600060208284031215615e9e57615e9d6140ca565b5b6000615eac84828501615e73565b91505092915050565b7f4552433732313a206d696e7420746f20746865207a65726f2061646472657373600082015250565b6000615eeb602083614142565b9150615ef682615eb5565b602082019050919050565b60006020820190508181036000830152615f1a81615ede565b9050919050565b7f4552433732313a20746f6b656e20616c7265616479206d696e74656400000000600082015250565b6000615f57601c83614142565b9150615f6282615f21565b602082019050919050565b60006020820190508181036000830152615f8681615f4a565b9050919050565b7f4e487b7100000000000000000000000000000000000000000000000000000000600052601260045260246000fdfea26469706673582212209e8127840065dc7b2cf98fb6507768ef50c88d634c9c32be55fc48685fa717e864736f6c634300080d0033",
  "immutableReferences": {},
  "source": "// SPDX-License-Identifier: MIT\npragma solidity ^0.8.0;\n\nimport \"@openzeppelin/contracts/token/ERC721/ERC721.sol\";\nimport \"@openzeppelin/contracts/token/ERC721/extensions/ERC721URIStorage.sol\";\nimport \"@openzeppelin/contracts/utils/Counters.sol\";\n\ncontract GuarantifyNFTContract is ERC721URIStorage {\n    using Strings for uint256;\n    using Counters for Counters.Counter;\n\n    // Variables for tracking NFT, Seller, and Consumer IDs\n    Counters.Counter private _tokenIdCounter;\n    Counters.Counter private _sellerIdCounter;\n    Counters.Counter private _ConsumerIdCounter;\n\n    // Mapping to store warranty details, NFT ownership, and Seller/Consumer data\n    mapping(uint256 => WarrantyToken) public mWarrantyTokenById;\n    mapping(uint256 => string) public mWarrantyURITokenById;\n    mapping(uint256 => address) public mWarrantyOwnerAddressByTokenId;\n    mapping(address => bool) private _mIsSellerByAddress;\n    mapping(address => bool) private _mIsConsumerByAddress;\n    mapping(address => Seller) public mSellersByAddress;\n    mapping(address => Consumer) public mConsumersByAddress;\n\n    // Contract-level variables\n    address public guarantifyContractAddress;\n    //string private _baseURI;\n\n    // Enums for NFT status\n    enum WarrantyTokenStatus {\n        Pending,\n        Enabled,\n        Expired,\n        ForSale\n    }\n\n    // Structs for Sellers, Consumers, and warranty details\n    struct Seller {\n        uint256 id;\n        address sellerAddress;\n        uint256[] allNFTs;\n        uint256[] allNFTsOnSale;\n    }\n\n    struct Consumer {\n        uint256 id;\n        address consumerAddress;\n        uint256[] allNFTs;\n        uint256[] allNFTsOnSale;\n    }\n\n    struct WarrantyToken {\n        uint256 id;\n        bytes32 verifyHash;\n        WarrantyTokenStatus status;\n        bytes32 codeGTIN;\n        uint256 invoiceNumber;\n        string productType;\n        uint256 warrantyDurationInDay;\n        uint256 purchaseDate;\n        address sellerAddress;\n        address buyer;\n        uint256 price;\n        uint256 resalePrice;\n\n        //uint256 resallerAdress;\n        //uint256[] buyers;\n        //uint256[] buyersDate;\n    }\n\n    // Events\n    event eventWarrantyTokenIsCreated(\n        uint256 tokenId,\n        string gtin,\n        address owner\n    );\n    event eventWarrantyTokenIsPending(\n        uint256 tokenId,\n        string gtin,\n        address owner\n    );\n    event eventWarrantyTokenIsEnabled(uint256 tokenId, address owner);\n    event eventWarrantyTokenIsExpired(uint256 tokenId, address owner);\n    event eventWarrantyTokenIsBurned(uint256 tokenId, address owner);\n    event eventWarrantyTokenIsTransfered(\n        uint256 tokenId,\n        address owner,\n        uint256 resalePrice,\n        address to\n    );\n    event eventWarrantyTokenIsVerified(uint256 tokenId, address owner);\n    event eventWarrantyTokenSellerAdded(address sellerAddress);\n    event eventWarrantyTokenConsumerAdded(address consumerAddress);\n    event eventWarrantyTokenSellerRemoved(address sellerAddress);\n    event eventWarrantyTokenConsumerRemoved(address consumerAddress);\n\n    /**\n     * Constructor\n     */\n    constructor() ERC721(\"GuarantifyNFT\", \"GNFT\") {\n        guarantifyContractAddress = address(this);\n        _addGuarantifyContractAddress();\n    }\n\n    /**\n     * Only Sellers can create warranties\n     */\n    modifier onlyAuthorizedSeller() {\n        require(\n            _mIsSellerByAddress[msg.sender],\n            \"Only Sellers can create warranties\"\n        );\n        _;\n    }\n\n    function _baseURI() internal pure override returns (string memory) {\n        return \"https://ipfs.io/ipfs/\";\n    }\n\n    /*\n     * @dev Create a warranty token\n     * @param _codeGTIN\n     * @param _invoiceNumber\n     * @param _productType\n     * @param _warrantyDurationInDay\n     * @param _price\n     * @param _tokenURI\n     */\n    function createWarranty(\n        string memory _codeGTIN,\n        uint256 _invoiceNumber,\n        string memory _productType,\n        uint256 _warrantyDurationInDay,\n        uint256 _price,\n        string memory _tokenURI\n    ) external onlyAuthorizedSeller returns (uint256) {\n        uint256 tokenId = _tokenIdCounter.current();\n        bytes32 verifyHash = getVerifyHash(_codeGTIN, _invoiceNumber);\n        // Add the NFT metadata to the mapping\n        WarrantyToken memory newWarranty = WarrantyToken({\n            id: tokenId,\n            verifyHash: verifyHash,\n            status: WarrantyTokenStatus.Pending,\n            codeGTIN: stringToBytes32(_codeGTIN),\n            invoiceNumber: _invoiceNumber,\n            productType: _productType,\n            warrantyDurationInDay: _warrantyDurationInDay,\n            purchaseDate: block.timestamp,\n            sellerAddress: msg.sender,\n            buyer: address(0),\n            price: _price,\n            resalePrice: 0\n        });\n\n        mWarrantyURITokenById[tokenId] = _tokenURI;\n        mWarrantyTokenById[tokenId] = newWarranty;\n        mSellersByAddress[msg.sender].allNFTs.push(tokenId);\n        mWarrantyOwnerAddressByTokenId[tokenId] = msg.sender;\n\n        emit eventWarrantyTokenIsCreated(tokenId, _codeGTIN, msg.sender);\n\n        _safeMint(msg.sender, tokenId);\n        _setTokenURI(tokenId, _tokenURI); //_tokenURI = \"https://ipfs.io/ipfs/bafybeihq5lkvgdrvb5anznlb53dgc3ise67ownsrgbfnrk7zth5jzaw2aa\";\n        _tokenIdCounter.increment();\n\n        emit eventWarrantyTokenIsPending(tokenId, _codeGTIN, msg.sender);\n        return tokenId;\n    }\n\n    /*\n     * @dev Verify a warranty token by codeGTIN and invoice number\n     * @param tokenId\n     * @param _codeGTIN\n     * @param _invoiceNumber\n     */\n    function verifyHashTokenByGtinAndInvoice(\n        uint256 tokenId,\n        string memory _codeGTIN,\n        uint256 _invoiceNumber\n    ) external returns (bool) {\n        require(\n            _isApprovedOrOwner(msg.sender, tokenId),\n            \"ERC721: transfer caller is not owner nor approved\"\n        );\n        //creer un mapping  mWarrantyTokenByHash[hashToken] et une fontion qui l'appel avec en parametre _codeGTIN et numero de facture\n        bytes32 verifyHash = getVerifyHash(_codeGTIN, _invoiceNumber);\n        if (mWarrantyTokenById[tokenId].verifyHash == verifyHash) {\n            emit eventWarrantyTokenIsVerified(tokenId, msg.sender);\n\n            return true;\n        } else {\n            return false;\n        }\n    }\n\n    function tokenURI(\n        uint256 _tokenId\n    ) public view override(ERC721URIStorage) returns (string memory) {\n        require(\n            _exists(_tokenId),\n            \"ERC721Metadata: URI query for nonexistent token\"\n        );\n        return super.tokenURI(_tokenId);\n    }\n\n    /*\n     * @dev Claim a warranty token by codeGTIN and invoice number\n     * @param _tokenId\n     * @param _codeGTIN\n     * @param _invoiceNumber\n     */\n    function claimAndEnabledWarranty(\n        uint256 _tokenId,\n        string memory _codeGTIN,\n        uint256 _invoiceNumber\n    ) external {\n        require(_exists(_tokenId), \"WarrantyContract: token does not exist\");\n        require(\n            mWarrantyTokenById[_tokenId].status == WarrantyTokenStatus.Pending,\n            \"This warranty is not pending active\"\n        );\n        require(\n            isVerifyHash(_codeGTIN, _invoiceNumber, _tokenId),\n            \"WarrantyContract: hash not verify\"\n        );\n\n        // Transfert de proprit de la garantie\n        address owner = ownerOf(_tokenId);\n        require(msg.sender != owner, \"You already own this warranty\");\n        _transfer(owner, msg.sender, _tokenId);\n\n        // Mise  jour du statut\n        mWarrantyTokenById[_tokenId].status = WarrantyTokenStatus.Enabled;\n\n        //suppression de la garantie du tableau du Seller\n        _removeNFTInArray(mSellersByAddress[owner].allNFTs, _tokenId);\n\n        //ajout de la garantie du tableau du Consumer\n        mConsumersByAddress[msg.sender].allNFTs.push(_tokenId);\n        mWarrantyOwnerAddressByTokenId[_tokenId] = msg.sender;\n\n        emit eventWarrantyTokenIsEnabled(_tokenId, msg.sender);\n    }\n\n    /**\n     * @dev Transfre une garantie  un nouveau propritaire et fixe un prix de revente.\n     * @param _to Adresse du nouveau propritaire de la garantie.\n     * @param _tokenId ID de la garantie  transfrer.\n     * @param _resalePrice Prix de revente de la garantie.\n     * @notice Seul le propritaire actuel de la garantie peut appeler cette fonction.\n     * @notice La garantie doit tre active et en attente d'activation pour pouvoir tre transfre.\n     */\n    function resell(\n        address _to,\n        uint256 _tokenId,\n        uint256 _resalePrice\n    ) external {\n        require(_exists(_tokenId), \"ERC721Metadata: nonexistent token\");\n        require(\n            mWarrantyTokenById[_tokenId].status == WarrantyTokenStatus.Enabled,\n            \"This warranty is not enabled\"\n        );\n        require(\n            mWarrantyOwnerAddressByTokenId[_tokenId] == msg.sender,\n            \"Not Owner of this NFT warranty\"\n        );\n\n        mWarrantyTokenById[_tokenId].resalePrice = _resalePrice;\n        mWarrantyTokenById[_tokenId].sellerAddress = msg.sender;\n        mWarrantyTokenById[_tokenId].buyer = _to;\n\n        safeTransferFrom(msg.sender, _to, _tokenId);\n\n        //suppression de la garantie du tableau du Seller\n        _removeNFTInArray(mConsumersByAddress[msg.sender].allNFTs, _tokenId);\n\n        //ajout de la garantie du tableau du Consumer\n        mConsumersByAddress[_to].allNFTs.push(_tokenId);\n        mWarrantyOwnerAddressByTokenId[_tokenId] = _to;\n\n        emit eventWarrantyTokenIsTransfered(\n            _tokenId,\n            msg.sender,\n            _resalePrice,\n            _to\n        );\n    }\n\n    /*\n     * @dev Burn a warranty token by tokenId\n     * @param _tokenId\n     */\n    function burn(uint256 _tokenId) external {\n        require(_exists(_tokenId), \"ERC721Metadata: nonexistent token\");\n        uint256 expiryDate = _getExpiryDate(_tokenId);\n        require(block.timestamp >= expiryDate, \"The garantie is not expired\");\n        emit eventWarrantyTokenIsExpired(_tokenId, msg.sender);\n        _burn(_tokenId);\n\n        _removeNFTInArray(mConsumersByAddress[msg.sender].allNFTs, _tokenId);\n        mWarrantyOwnerAddressByTokenId[_tokenId] = address(0);\n        mWarrantyTokenById[_tokenId].status = WarrantyTokenStatus.Expired;\n        emit eventWarrantyTokenIsBurned(_tokenId, msg.sender);\n    }\n\n    /*\n     * @dev Get the expiry date of a warranty token by tokenId\n     * @param _tokenId ID de la garantie\n     */\n    function _getExpiryDate(\n        uint256 _tokenId\n    ) private view returns (uint256 expiry) {\n        return\n            mWarrantyTokenById[_tokenId].purchaseDate +\n            (mWarrantyTokenById[_tokenId].warrantyDurationInDay * 86400);\n    }\n\n    function _addGuarantifyContractAddress() private {\n        addSeller(guarantifyContractAddress);\n    }\n\n    /*\n     * @dev Add a Seller\n     * @param _Seller Adresse du Seller\n     */\n    function addSeller(address _Seller) public {\n        require(_Seller != address(0), \"Invalid Seller address\");\n        require(!_mIsSellerByAddress[_Seller], \"Seller already added\");\n        require(\n            msg.sender == _Seller || guarantifyContractAddress == _Seller,\n            \"Only the owner of the account can add it\"\n        );\n        uint256 SellerIdCounter = _sellerIdCounter.current();\n        _mIsSellerByAddress[_Seller] = true;\n\n        // Create a new Seller struct\n        Seller memory newSeller = Seller({\n            id: SellerIdCounter,\n            sellerAddress: _Seller,\n            allNFTs: new uint256[](0),\n            allNFTsOnSale: new uint256[](0)\n        });\n\n        // Add the new Seller to the mapping\n        mSellersByAddress[_Seller] = newSeller;\n\n        _sellerIdCounter.increment();\n        emit eventWarrantyTokenSellerAdded(_Seller);\n    }\n\n    /*\n     * @dev Add a Consumer\n     * @param _Consumer\n     */\n    function addConsumer(address _Consumer) external {\n        require(!_mIsConsumerByAddress[_Consumer], \"Consumer already added\");\n        require(\n            msg.sender == _Consumer,\n            \"Only the owner of the account can add it\"\n        );\n        uint256 ConsumerIdCounter = _ConsumerIdCounter.current();\n\n        _mIsConsumerByAddress[_Consumer] = true;\n\n        // Create a new Seller struct\n        Consumer memory newConsumer = Consumer({\n            id: ConsumerIdCounter,\n            consumerAddress: _Consumer,\n            allNFTs: new uint256[](0),\n            allNFTsOnSale: new uint256[](0)\n        });\n\n        // Add the new Seller to the mapping\n        mConsumersByAddress[_Consumer] = newConsumer;\n\n        _ConsumerIdCounter.increment();\n\n        emit eventWarrantyTokenConsumerAdded(_Consumer);\n    }\n\n    /*\n     * @dev Remove a Seller\n     * @param _Seller\n     */\n    function removeSeller(address _Seller) external {\n        require(_mIsSellerByAddress[_Seller], \"Seller not found\");\n        require(\n            msg.sender == _Seller,\n            \"Only the owner of the account can delete it\"\n        );\n        _mIsSellerByAddress[_Seller] = false;\n        delete mSellersByAddress[msg.sender];\n        emit eventWarrantyTokenSellerRemoved(_Seller);\n    }\n\n    /*\n     * @dev Remove a Consumer\n     * @param _Consumer Adresse du Consumer\n     */\n    function removeConsumer(address _Consumer) external {\n        require(_mIsConsumerByAddress[_Consumer], \"Consumer not found\");\n        require(\n            msg.sender == _Consumer,\n            \"Only the owner of the account can delete it\"\n        );\n        _mIsConsumerByAddress[_Consumer] = false;\n        delete mConsumersByAddress[msg.sender];\n\n        emit eventWarrantyTokenConsumerRemoved(_Consumer);\n    }\n\n    /*\n     * @dev Convert a string to bytes32\n     * @param str string to convert\n     */\n    function stringToBytes32(\n        string memory str\n    ) public pure returns (bytes32 result) {\n        bytes memory tempEmptyStringTest = bytes(str);\n        if (tempEmptyStringTest.length == 0) {\n            return 0x0;\n        }\n\n        assembly {\n            result := mload(add(str, 32))\n        }\n    }\n\n    /*\n     * @dev Remove a NFT from the array of NFTs\n     * @param _nfts\n     * @param _tokenId\n     */\n    function _removeNFTInArray(\n        uint256[] storage _nfts,\n        uint256 _tokenId\n    ) private {\n        for (uint i = 0; i < _nfts.length; i++) {\n            if (_nfts[i] == _tokenId) {\n                for (uint j = i; j < _nfts.length - 1; j++) {\n                    _nfts[j] = _nfts[j + 1];\n                }\n                _nfts.pop();\n                break;\n            }\n        }\n    }\n\n    /*\n     * @dev Verify a hash\n     * @param _codeGTIN\n     * @param _invoiceNumber\n     */\n    function getVerifyHash(\n        string memory _codeGTIN,\n        uint256 _invoiceNumber\n    ) public pure returns (bytes32) {\n        return keccak256(abi.encode(_codeGTIN, _invoiceNumber));\n    }\n\n    /*\n     * @dev Verify a hash\n     * @param _codeGTIN\n     * @param _invoiceNumber\n     * @param _tokenID\n     */\n    function isVerifyHash(\n        string memory _codeGTIN,\n        uint256 _invoiceNumber,\n        uint256 _tokenID\n    ) public view returns (bool) {\n        bytes32 hashSoumis = keccak256(abi.encode(_codeGTIN, _invoiceNumber));\n        bytes32 hashInscrit = mWarrantyTokenById[_tokenID].verifyHash;\n        return _compareHashes(hashSoumis, hashInscrit);\n    }\n\n    /*\n     * @dev Compare two hashes\n     * @param hash1\n     * @param hash2\n     */\n    function _compareHashes(\n        bytes32 hash1,\n        bytes32 hash2\n    ) private pure returns (bool) {\n        if (hash1 == hash2) {\n            return true;\n        } else {\n            return false;\n        }\n    }\n\n    /*\n     * @dev Check if a Seller\n     * @param _Seller\n     */\n    function isSeller(address _Seller) external view returns (bool) {\n        return _mIsSellerByAddress[_Seller];\n    }\n\n    /*\n     * @dev Check if a Consumer\n     * @param _Consumer\n     */\n    function isConsumer(address _Consumer) external view returns (bool) {\n        return _mIsConsumerByAddress[_Consumer];\n    }\n\n    /*\n     * @dev Rcuprer tous les NFTS d'un Seller\n     * @param SellerAddress\n     */\n    function getAllNFTForASeller(\n        address SellerAddress\n    ) external view returns (uint256[] memory) {\n        return mSellersByAddress[SellerAddress].allNFTs;\n    }\n\n    /*\n     * @dev Rcuprer tous les NFTS d'un Consumer\n     * @param ConsumerAddress\n     */\n    function getAllNFTForAConsumer(\n        address ConsumerAddress\n    ) external view returns (uint256[] memory) {\n        return mConsumersByAddress[ConsumerAddress].allNFTs;\n    }\n    /*\n    function sellNFTToContractMarketplace(\n    function buyASecondHandGuarantee(uint256 _tokenId)\n*/\n}\n",
  "sourcePath": "/home/cyrildev/wnft/guarantify/truffle/contracts/GuarantifyNFTContract.sol",
  "compiler": {
    "name": "solc",
    "version": "0.8.13+commit.abaa5c0e.Emscripten.clang"
  },
  "schemaVersion": "3.4.13",
  "updatedAt": "2023-04-08T09:45:45.095Z",
  "networkType": "ethereum",
  "devdoc": {
    "kind": "dev",
    "methods": {
      "approve(address,uint256)": {
        "details": "See {IERC721-approve}."
      },
      "balanceOf(address)": {
        "details": "See {IERC721-balanceOf}."
      },
      "getApproved(uint256)": {
        "details": "See {IERC721-getApproved}."
      },
      "isApprovedForAll(address,address)": {
        "details": "See {IERC721-isApprovedForAll}."
      },
      "name()": {
        "details": "See {IERC721Metadata-name}."
      },
      "ownerOf(uint256)": {
        "details": "See {IERC721-ownerOf}."
      },
      "resell(address,uint256,uint256)": {
        "details": "Transfre une garantie  un nouveau propritaire et fixe un prix de revente.",
        "params": {
          "_resalePrice": "Prix de revente de la garantie.",
          "_to": "Adresse du nouveau propritaire de la garantie.",
          "_tokenId": "ID de la garantie  transfrer."
        }
      },
      "safeTransferFrom(address,address,uint256)": {
        "details": "See {IERC721-safeTransferFrom}."
      },
      "safeTransferFrom(address,address,uint256,bytes)": {
        "details": "See {IERC721-safeTransferFrom}."
      },
      "setApprovalForAll(address,bool)": {
        "details": "See {IERC721-setApprovalForAll}."
      },
      "supportsInterface(bytes4)": {
        "details": "See {IERC165-supportsInterface}."
      },
      "symbol()": {
        "details": "See {IERC721Metadata-symbol}."
      },
      "transferFrom(address,address,uint256)": {
        "details": "See {IERC721-transferFrom}."
      }
    },
    "version": 1
  },
  "userdoc": {
    "kind": "user",
    "methods": {
      "constructor": {
        "notice": "Constructor"
      },
      "resell(address,uint256,uint256)": {
        "notice": "Seul le propritaire actuel de la garantie peut appeler cette fonction.La garantie doit tre active et en attente d'activation pour pouvoir tre transfre."
      }
    },
    "version": 1
  }
}